S015000054657374776176706C617965722E7372656394
S11300000C9434000C9451000C9451000C94510045
S11300100C9451000C9451000C9451000C94510018
S11300200C9451000C9451000C9451000C94510008
S11300300C9451000C9451000C949D0B0C945100A1
S11300400C9451000C9451000C9451000C945100E8
S11300500C9451000C94020D0C9451000C9451001A
S11300600C9451000C94510011241FBECFEFD8E022
S1130070DEBFCDBF11E0A0E0B1E0E8EEFAE102C0DE
S113008005900D92A039B107D9F726E0A0E9B1E0B7
S113009001C01D92A430B207E1F70E94A90A0C9492
S11300A0720D0C9400008FEF8EBD0DB407FEFDCFD2
S11300B08EB508952A9A0E9453000895CF92DF9234
S11300C0EF92FF92CF93C82F6A017B0188234CF4EF
S11300D040E050E0BA0187E70E945E008230D0F52C
S11300E0CF772A9A0E9453002A980E945300CEBDCB
S11300F00DB407FEFDCF4F2D5527662777274EBD3C
S11301000DB407FEFDCFA701662777274EBD0DB4BA
S113011007FEFDCF77276F2D5E2D4D2D4EBD0DB4FF
S113012007FEFDCFCEBC0DB407FEFDCFC03421F0D9
S1130130C83421F081E003C085E901C087E88EBDA1
S11301400DB407FEFDCFCAE00E945300882314F4C7
S1130150C150D1F7CF91FF90EF90DF90CF900895E9
S1130160CF92DF92EF92FF920F931F93CF93DF937F
S11301707C01E9018091920183FD09C0032E39E0DD
S1130180440F551F661F771F3A95D1F7302D81E52F
S11301900E945E00811136C00F2EF0E3CF2EF5E7EA
S11301A0DF2EF02D0E9453008F3F39F481E0C81AEE
S11301B0D108C114D104B1F727C08E3F39F582E0CC
S11301C092E06C01C01AD10ACC1ADD0A209729F0FA
S11301D00E94530021972097D9F7E114F10449F0C4
S11301E0E7010E945300899301501109011511057B
S11301F0C1F70E94530081E0C81AD108C114D10488
S1130200C1F706C0C1E005C0C1E003C0C1E001C040
S1130210C0E00E945A008C2FDF91CF911F910F9163
S1130220FF90EF90DF90CF9008951F93CF93DF93CB
S1130230009739F14115510509F473C020919001DB
S113024030919101232B09F46EC0FC0141505109F6
S1130250480F591F80818EBD0DB407FEFDCF20913C
S113026090013091910121503109309391012093F3
S11302709001E417F50709F458C03196232B51F780
S113028056C0411551056105710521F18091920116
S113029083FD09C0032E39E0440F551F661F771FE5
S11302A03A95D1F7302D88E50E945E00811141C056
S11302B08FEF8EBD0DB407FEFDCF8EEF8EBD0DB456
S11302C007FEFDCF80E092E090939101809390012E
S11302D010E030C02091900130919101C901019644
S11302E02E3F3F4F19F01EBC0197E8F70DB407FEEF
S11302F0FDCF0E9453008F71853079F4C8EEDDEF95
S113030001C021970E9453008F3F11F02097C9F735
S113031011E0CD2B19F010E001C011E00E945A0049
S113032009C010E007C010E005C010E003C010E0F1
S113033001C011E0812FDF91CF911F910895EF92B9
S1130340FF920F931F93CF93DF9300D000D0CDB7CC
S1130350DEB72A99B6C040E050E0BA0180E090E0F0
S11303600E941501AEC00E9453001150E1F740E015
S113037050E0BA0180E40E945E00813009F083C03D
S11303804AEA51E060E070E088E40E945E00813057
S113039009F047C07E0185E0E80EF11C8E010F5F75
S11303A01F4F0E945300F80181938F01EE15FF0542
S11303B0C1F78B81813009F068C08C818A3A09F0D9
S11303C066C000EE1EE206C00150110901151105B8
S11303D009F45FC040E050E060E070E489EE0E9400
S11303E05E008111F1CF012B09F455C040E050E0CB
S11303F0BA018AE70E945E0081114FC08E010F5F2F
S11304001F4F0E945300F80181938F01EE15FF05E1
S1130410C1F7898186FF43C00F2EFCE0FF2EF02D2B
S113042047C040E050E0BA0189EE0E945E0082308D
S113043040F46894FF24F1F80F2EF9EEEF2EF02D1E
S113044006C0FF24F3940F2EF1E4EF2EF02D08EAFA
S113045011E605C0015011090115110521F140E013
S113046050E0BA018E2D0E945E008111F3CF012B62
S1130470E1F040E052E060E070E080E50E945E0060
S1130480811115C015C0F12C13C0F12C11C0F12C31
S11304900FC0F12C0DC0F12C0BC0F12C09C06894D5
S11304A0FF24F2F805C0F12C03C0F12C01C0F12C9B
S11304B0F09292010E945A0081E0FF2021F080E036
S11304C002C014E650CF0F900F900F900F90DF9161
S11304D0CF911F910F91FF90EF9008950F931F9369
S11304E0E0919301F09194019B01AC0122503109F8
S11304F04109510980859185A285B3850297A10997
S1130500B109281739074A075B0768F4A181B0E0ED
S11305100E94580D0489158926893789600F711F37
S1130520821F931F03C060E070E0CB011F910F9105
S113053008950F931F93CF93DF93EC01E091930100
S1130540F0919401198218826C817D818E819F8142
S1130550613071058105910559F100851185228568
S11305603385601771078207930720F561157105BC
S11305708105910509F58081833019F560897189B8
S113058082899389688779878A879B876115710532
S11305908105910519F00E946E0204C06089718979
S11305A0828993896C877D878E879F8780E00EC0C0
S11305B081E00CC081E00AC0688779878A879B87BD
S11305C0EACF188619861A861B86E8CFDF91CF9169
S11305D01F910F910895CF92DF92EF92FF920F93A4
S11305E01F93CF93DF93EC016A017B0102E010E0DB
S11305F02EEF31E00E94B000811126C088819981DC
S113060085359A4A19F526E330E0B701A601CE01F3
S11306100E94B000811105C088819981863491447B
S1130620B9F002E010E022E530E0B701A601CE0106
S11306300E94B00081110EC081E0288139812634E6
S1130640314449F480E007C083E005C082E003C080
S113065080E001C081E0DF91CF911F910F91FF9065
S1130660EF90DF90CF9008954F925F926F927F92B8
S1130670AF92BF92CF92DF92EF92FF920F931F93AC
S1130680CF93DF9300D000D0CDB7DEB76B017C01F0
S1130690A0909301B090940182E0C816D104E104C3
S11306A0F10408F4B8C0F50180859185A285B3856D
S11306B0C816D906EA06FB0608F0B2C0808182306B
S11306C009F461C0833009F47CC0813009F0ADC005
S11306D02601569447944C0C5D1C92013170452CB4
S11306E0552446942F3FF1E03F0791F0F5014485EE
S11306F0558566857785440D551D611D711D02E084
S113070010E0CE0101960E94B000882359F192C0F6
S1130710612C712CF5014485558566857785440DDA
S1130720551D661D771D01E010E02FEF31E0CE016D
S113073001960E94B000811182C0F501448555855F
S1130740668577854F5F5F4F6F4F7F4F440D551D13
S1130750661D771D20E030E0CE0102960E94B000B5
S1130760811172C069817A81C0FE09C07295629557
S11307706F7067277F70672780E090E073C07F7099
S113078080E090E06FC096013327220F331F772754
S11307906F2D5E2D4D2DF50184859585A685B78534
S11307A0480F591F6A1F7B1F02E010E0CE0101961B
S11307B00E94B00081114DC069817A8180E090E08F
S11307C051C096012F773327220F331F220F331F77
S11307D0B701A601689416F87695679557954795DD
S11307E01694D1F7F50184859585A685B785480FBC
S11307F0591F6A1F7B1F04E010E0CE0101960E947E
S1130800B00081112BC089819A81AB81BC81BC016C
S1130810CD019F7027C061E070E080E090E022C0CD
S113082061E070E080E090E01DC061E070E080E095
S113083090E018C061E070E080E090E013C061E0F7
S113084070E080E090E00EC061E070E080E090E055
S113085009C061E070E080E090E004C061E070E015
S113086080E090E00F900F900F900F90DF91CF9168
S11308701F910F91FF90EF90DF90CF90BF90AF90BA
S11308807F906F905F904F900895CF92DF92EF9298
S1130890FF920F931F93CF93DF93EC01E0909301AA
S11308A0F0909401088119810F5F1F4F0115110504
S11308B009F457C04C855D856E857F8541155105CA
S11308C06105710509F44FC0C8018F709927892B00
S11308D009F043C04F5F5F4F6F4F7F4F4C875D8779
S11308E06E877F87688579858A859B856115710503
S11308F08105910539F4F701848195810817190759
S1130900A0F52BC0F701218130E021503109A80165
S1130910529542954F7045275F7045272423352310
S1130920232BD9F40E9434036230710581059105AB
S1130930F0F0F701C084D184E284F3846C157D0562
S11309408E059F05B0F4688779878A879B870E9404
S11309506E026C877D878E879F871983088380E06A
S113096009C083E007C083E005C083E003C081E0E1
S113097001C083E0DF91CF911F910F91FF90EF9021
S1130980DF90CF9008952F923F924F925F926F9293
S11309907F928F929F92AF92BF92CF92DF92EF920B
S11309A0FF920F931F93CF93DF937C015B01DB01D5
S11309B08C91803241F4FB013196BFEFAB1ABB0A34
S11309C081918032D1F38F3219F4EFEFAE1ABE0A5F
S11309D0D70114961D921D921D921C921797F50132
S11309E08081813268F4C7010E949902582FE091F6
S11309F09301F09194010680F781E02D1082C7C025
S1130A006894992495F8612C6894442443F8342C10
S1130A100F2EFBE02F2EF02D55245394852C762C8D
S1130A20F701A281B381FD01CD010B969192E817E4
S1130A30F907E1F7962D862D342D01C0822F21E090
S1130A40280FF501E80FF11D8081813290F08F327B
S1130A5081F08E3209F48DC0931758F44FE9480F92
S1130A604A3108F48052FD01E90FF11D80839F5F34
S1130A70E5CFA20EB11C952D813208F0962D1B9660
S1130A809C93C7010E949902582F81117EC0E09166
S1130A909301F0919401C680D780E6012B96D7018B
S1130AA02D913C9111972F703327220F331F2295DC
S1130AB03295307F3227207F32271C964D915D91ED
S1130AC06D917C911F9700E210E0C6010E94B00076
S1130AD0582D811101C0572D511157C0F601808145
S1130AE08823C9F0838583FD0FC0D70112962D9109
S1130AF03C911397D90104C0EC17FD0709F43FC0DA
S1130B0041919D914917C1F3C7010E944504582F93
S1130B10882329F23AC0D7011296ED91FC911397DC
S1130B208385882311F11FC0E0919301F091940112
S1130B300680F781E02D838584FF19C08489958917
S1130B40A0E0B0E0DC0199278827428D538D60E056
S1130B5070E0842B952BA62BB72BF7018483958308
S1130B60A683B7835DCF53E012C054E010C054E0B5
S1130B700EC0383009F07DCF932D322D5FCFD901CF
S1130B801B968C91882381F202C0533021F2852F69
S1130B90DF91CF911F910F91FF90EF90DF90CF9055
S1130BA0BF90AF909F908F907F906F905F904F9089
S1130BB03F902F9008954F925F926F927F929F92F1
S1130BC0AF92BF92CF92DF92EF92FF920F931F9357
S1130BD0CF93DF93CDB7DEB7A8970FB6F894DEBFF7
S1130BE00FBECDBF5C011092940110929301009747
S1130BF009F4ECC00E949F0180FDEAC040E050E08F
S1130C00BA01CE0101960E94EB028130E1F400E1C9
S1130C1010E02EEB31E040E050E0BA01CE01019645
S1130C200E94B0008111D6C08D81882309F4D4C0FC
S1130C3049845A846B847C84B301A201CE01019659
S1130C400E94EB0203C0412C512C3201833009F481
S1130C50C5C08111C5C004E210E02DE030E0B3014D
S1130C60A201CE0101960E94B0008111BBC02A8569
S1130C703B8540E050E0211531054105510521F443
S1130C80288D398D4A8D5B8DAC81B0E00E94580D62
S1130C906B017C018A819B818C0120E030E0400E55
S1130CA0511E621E731ED5011C964D925D926D926B
S1130CB07C921F97998011969C921197ED81FE81E9
S1130CC01596FC93EE9314976F817885CB01A0E081
S1130CD0B0E00097A105B10521F48C899D89AE8906
S1130CE0BF89F295E295EF70EF27FF70EF27AF0110
S1130CF060E070E04DA35EA36FA378A7801B910B07
S1130D00A20BB30B8C199D09AE09BF09BC01CD011F
S1130D102DA13EA14FA158A5621B730B840B950B0B
S1130D20292D30E040E050E00E94360DBA01A901BF
S1130D304E5F5F4F6F4F7F4FD50118964D935D9374
S1130D406D937C931B97473FBFE05B07610571057B
S1130D5010F481E001C082E0473F5F4F61057105F7
S1130D6008F042C0D5018C93833051F488A199A135
S1130D70AAA1BBA1F501808B918BA28BB38B0BC075
S1130D80D701C601840D951DA61DB71DF501808BE5
S1130D90918BA28BB38B2DA13EA14FA158A5420EDE
S1130DA0531E641E751EC40CD51CE61CF71CD5010D
S1130DB05496CD92DD92ED92FC92579712961C9226
S1130DC0B0929401A092930180E012C080E010C020
S1130DD082E00EC081E00CC087E00AC081E008C058
S1130DE087E006C081E004C083E0F5018083BECFC4
S1130DF0A8960FB6F894DEBF0FBECDBFDF91CF919A
S1130E001F910F91FF90EF90DF90CF90BF90AF9024
S1130E109F907F906F905F904F9008950F931F93D2
S1130E20CF93DF93CDB7DEB7EC970FB6F894DEBF60
S1130E300FBECDBF009193011091940101151105CE
S1130E40E1F1F80112829E01235E3F4F378326832E
S1130E502C5031093C832B83BC01CE0101960E94A6
S1130E60C30481112FC08D8D882349F188A584FD89
S1130E7028C089A99AA9A0E0B0E0DC0199278827B5
S1130E804FA958AD60E070E0842B952BA62BB72BAF
S1130E90F80180A391A3A2A3B3A389AD9AADABAD8E
S1130EA0BCAD848F958FA68FB78F108E118E128E46
S1130EB0138E81E0828380E005C086E003C083E076
S1130EC001C083E0EC960FB6F894DEBF0FBECDBF31
S1130ED0DF91CF911F910F9108952F923F924F92DE
S1130EE05F926F927F928F929F92AF92BF92CF92B6
S1130EF0DF92EF92FF920F931F93CF93DF932C0116
S1130F006B013A01C0919301D0919401FA011182CD
S1130F101082209709F4B5C08A8180FFB4C08C8DFB
S1130F209D8DAE8DBF8D488D598D6A8D7B8D841BB3
S1130F30950BA60BB70BA60160E070E0841795072C
S1130F40A607B70708F46C01C114D10409F49DC0C5
S1130F505201812C6894992491F8312C212CE88C2D
S1130F60F98C0A8D1B8DD801C7019170AA27BB2764
S1130F70892B8A2B8B2B09F049C0298130E040E072
S1130F8050E0C801B701052E59E0969587957795ED
S1130F9067955A95D1F7502D0E94360D672B682B13
S1130FA0692BD1F4EF28E02AE12A29F468A179A178
S1130FB08AA19BA106C06CA17DA18EA19FA10E94C4
S1130FC03403623071058105910508F457C06CA3A0
S1130FD07DA38EA39FA31B826CA17DA18EA19FA143
S1130FE00E946E02611571058105910509F446C0E0
S1130FF02B8131E0320F3B83DC01CB01820F911D49
S1131000A11DB11D88A799A7AAA7BBA7288D398DB3
S11310103170C401821B930B76018C159D0508F475
S11310207C0148A559A56AA57BA54114510419F46E
S1131030832D922D02C08A2D9B2D87010E94B00022
S113104081111CC0888D998DAA8DBB8D8E0D9F1D1D
S1131050A11DB11D888F998FAA8FBB8FAE0CBF1CA9
S1131060CE18DF08F30180819181E80EF91EF18228
S1131070E082C114D10409F072CF09C01A8281E060
S113108007C086E005C085E003C080E001C080E0C1
S1131090DF91CF911F910F91FF90EF90DF90CF9050
S11310A0BF90AF909F908F907F906F905F904F9084
S11310B03F902F9008952F923F924F925F926F929C
S11310C07F928F929F92AF92BF92CF92DF92EF92D4
S11310D0FF920F931F93CF93DF9300D000D0CDB72F
S11310E0DEB7362FE72F209093013090940121141E
S11310F0310409F4F7C0D10112962C91129720FF04
S1131100F3C05C964D915D916D917C915F97C32E78
S1131110DE2EE82EF92E4C155D056E057F0510F4C4
S11311206A017B01F101808D918DA28DB38D108EAA
S1131130118E128E138EC114D104E104F10409F44A
S1131140D5C08180912CA12CB12C072E79E0880C7C
S1131150991CAA1CBB1C7A95D1F7702D0097A10588
S1131160B10509F441C02C013D01F1E04F1A5108C9
S113117061087108C701B6016150710981099109BB
S1131180A50194010E94360D29833A834B835C8325
S1131190C301B201A50194010E94360D89819A818F
S11311A0AB81BC8182179307A407B507E8F08827B1
S11311B09927DC0188199909AA09BB0948225922EF
S11311C06A227B22D10158964D925D926D927C9257
S11311D05B97C418D508E608F70894966D917D913D
S11311E08D919C91979709C0F10160A171A182A191
S11311F093A164A375A386A397A38C149D04AE0442
S1131200BF0460F50E9434036230710581059105C5
S113121008F463C0F10100851185228533856017C8
S113122071078207930708F058C064A375A386A3C7
S113123097A3008D118D228D338D080D191D2A1D44
S11312403B1D008F118F228F338FC818D908EA08ED
S1131250FB088C149D04AE04BF04A0F2D10158967F
S11312600D911D912D913C915B970C0D1D1D2E1D13
S11312703F1DF101008F118F228F338F0E946E0268
S1131280611571058105910541F1970186010F2EC4
S1131290F9E03695279517950795FA95D1F7F02D2E
S11312A0F1E0DF22EE24FF24CD28CE28CF2829F434
S11312B0D10113960C9380E01AC041E0400FF10174
S11312C04383DC01CB01800F911DA11DB11D80A7BB
S11312D091A7A2A7B3A780E00AC0D10112961C92DD
S11312E081E005C086E003C085E001C080E00F9086
S11312F00F900F900F90DF91CF911F910F91FF905E
S1131300EF90DF90CF90BF90AF909F908F907F90A1
S11313106F905F904F903F902F9008950F931F937D
S1131320CF93DF93CDB7DEB7AC970FB6F894DEBF9B
S11313300FBECDBF8C01E0919301F09194013097E1
S113134069F1CE010D96978386830C97F8019383F8
S11313508283C8010E94C30481111BC08D85882328
S113136009F1888D84FF18C049A15AA160E070E09A
S1131370BA01552744278FA198A5A0E0B0E0482BD7
S1131380592B6A2B7B2BF80144835583668377831F
S113139009C0833029F00AC084E008C086E006C092
S11313A084E004C0C8010E949902F3CFAC960FB642
S11313B0F894DEBF0FBECDBFDF91CF911F910F9187
S11313C00895CF93DF931F92CDB7DEB76983698108
S11313D070E0FB0102C0F595E7954A95E2F7E0FD60
S11313E02AC0BC01660F771FFB01EC55FE4F4081FC
S11313F051814F5F5F4F51834083FB01EF55FE4F97
S11314001182108224173507ACF5FC01EB52FA4F18
S11314102081211107C0FC01EB52FA4F21E0208307
S113142081E02BC0FC01EE0FFF1FEC55FE4F118233
S1131430108280E022C0BC01660F771FFB01EF55CC
S1131440FE4F408151814F5F5F4F51834083FB01C9
S1131450EC55FE4F11821082241735076CF4FC0101
S1131460EB52FA4F1082FB01EF55FE4F11821082AE
S113147080E003C080E001C080E00F90DF91CF9155
S11314800895CF93DF930E940E07D82F81115CC07B
S11314906CE270E080E090E00E945B084EEB51E06B
S11314A060E072E085ED91E00E946D074EEB51E043
S11314B060E072E085ED93E00E946D0785B582607F
S11314C085BDC1E09091D4019923C9F02091BD015B
S11314D02C2730E0C901982F8827990F4EEB51E053
S11314E060E072E08B529E4F0E946D072091BE0116
S11314F03091BF012115324020F11092D401909116
S11315009901913019F4109299011BC069B128EB2B
S11315103BE044E080E090E00E94E109882391F2FE
S11315209091A3019111CECF10929E01C093A3017B
S1131530C0939801C0939901C0939D01C0939C01ED
S1131540C1CF85B58D7F85BD8D2F90E0DF91CF9183
S113155008958AB187638AB9219A5D9A5C9A83B7A0
S1131560817F846083BF84B18C6284B92A9A8CB5EC
S113157080658CBD8DB581608DBD81E880938000D0
S113158081E08093810082E084BD80936E00789432
S113159088E587BDEAE7F0E080818F688083C1E059
S11315A088ED95E00E94DB058111FACF61E571E0D9
S11315B080EC91E00E948E098111F2CF80910001AC
S11315C0813039F481E391E00E94410A10920001D4
S11315D05A9A80919E01813009F046C0E0919A01A7
S11315E0F0E0EE0FFF1FEE5FFE4F8081809301015C
S11315F080910101813081F480919A018F5F809301
S11316009A0180919A01893011F410929A018DE324
S113161091E00E94410AC4CF80910101823081F49B
S113162080919A018F5F80939A0180919A01893009
S113163011F410929A0187E491E00E94410AB0CF1C
S113164080910101833081F480919A018F5F8093AE
S11316509A0180919A01893011F410929A0182E5DD
S113166091E00E94410A9CCF80919E01823009F052
S113167049C0E0919B01F0E0EE0FFF1FE95EFE4FD1
S1131680808180931601599AC093A6018091160116
S1131690813081F480919B018F5F80939B018091C5
S11316A09B01893011F410929B018DE591E00E9419
S11316B0410A76CF80911601823081F480919B019A
S11316C08F5F80939B0180919B01893011F410926C
S11316D09B0187E691E00E94410A62CF8091160146
S11316E0833081F480919B018F5F80939B01809173
S11316F09B01893011F410929B0182E791E00E94D2
S1131700410A4ECF80919801813079F48DE791E0C0
S11317100E94410A1BB815B818B883B7816083BF0B
S1131720889583B78E7F83BF41CF88E891E00E947C
S1131730410A892B09F43ACF33CF1F920F920FB687
S11317400F9211242F933F938F939F93EF93FF93C3
S1131750E091BD0180919601909197019C012F5FCA
S11317603F4F3093970120939601F0E0FE2FEE2730
S1131770FF0F8E0F9F1FFC01EB52FE4F8081809361
S1131780950190E090938900809388008091960160
S1131790909197018115924060F0109297011092F8
S11317A0960181E08093D4019091BD0189278093B3
S11317B0BD0180912F01909130018E35914040F40C
S11317C080912F0190913001893C910508F046C029
S11317D080912D0190912E018E35914038F48091A5
S11317E02D0190912E01893C9105C0F580912B012A
S11317F090912C018E35914038F480912B01909179
S11318002C01893C910550F580912F019091300174
S1131810883E934038F480912F01909130018335B4
S11318209340E0F480912D0190912E01883E9340E5
S113183038F480912D0190912E018335934070F4FA
S113184080912B0190912C01883E934030F580913A
S11318502B0190912C0183359340F8F080919D01E8
S113186081111BC08091D0019091D1010196909378
S1131870D1018093D0018091D0019091D10106973C
S113188080F081E080939E01809399011092D101B0
S11318901092D00180939D0104C01092D101109246
S11318A0D00180912F0190913001883C910518F16D
S11318B080912D0190912E01883C9105E0F080915A
S11318C02B0190912C01883C9105A8F080912F0167
S11318D090913001893E934070F480912D01909154
S11318E02E01893E934038F480912B0190912C0174
S11318F0893E9340B0F080919C01811112C082E036
S113190080939E0181E0809399011092D1011092FD
S1131910D00180939D0180939C011092D301109279
S1131920D2018091A6018130D1F480919F019091E0
S1131930A00101969093A00180939F0180919F0143
S11319409091A0018938934150F09BB182E089279E
S11319508BB91092A00110929F011092A601809160
S11319609E018130D1F48091D6059091D7050196DE
S11319709093D7058093D6058091D6059091D7058D
S11319808031974251F410929D0110929C01109263
S1131990D7051092D60510929E0180919E01823047
S11319A009F58091D2019091D30101969093D301CE
S11319B08093D2018091D2019091D30188389341D0
S11319C011F410929C018091D2019091D301803244
S11319D09E4441F410929D011092D3011092D201C1
S11319E010929E01EAE7F0E0808180648083FF9199
S11319F0EF919F918F913F912F910F900FBE0F9078
S1131A001F9018951F920F920FB60F9211242F93C7
S1131A108F939F93809178002091790090E0922B8E
S1131A2020917C00213061F018F0223089F016C03A
S1131A309093300180932F0181E080937C000EC04D
S1131A4090932E0180932D0182E080937C0006C048
S1131A5090932C0180932B0110927C009F918F9185
S1131A602F910F900FBE0F901F901895A1E21A2E80
S1131A70AA1BBB1BFD010DC0AA1FBB1FEE1FFF1F2E
S1131A80A217B307E407F50720F0A21BB30BE40B7E
S1131A90F50B661F771F881F991F1A9469F76095C5
S1131AA07095809590959B01AC01BD01CF0108957F
S1131AB00E94630DA59F900DB49F900DA49F800D6F
S1131AC0911D11240895A29FB001B39FC001A39F4B
S1131AD0700D811D1124911DB29F700D811D112463
S10B1AE0911D0895F894FFCF55
S1131AE801010100030002000100030002000100DB
S1131AF803000100020001010003000200010003C9
S1131B080002000100030001000100BC02BC02BC89
S1131B1802737461727475702E77617600737769D5
S1131B286E672E776176007377696E67322E7761F8
S1131B3876007377696E67332E77617600636C611C
S1131B4873682E77617600636C617368322E7761EF
S1131B587600636C617368332E77617600707772F0
S1131B6864776E2E7761760068756D2E77617600DE
S9030000FC
